:020000040000FA
:1000000080311E28FF3FFF3F80312000111C09284E
:100010000A281D280130C2070030C33D0C1C1128DE
:1000200012281528C001C1011A280130C00700306C
:10003000C13D1A2811101D281D280900880185318D
:10004000D02D8331C42B8331DF2B8331FA2B8431C4
:10005000152C8431302C84314B2C8431672C843125
:10006000722C2000C401F601F7017708803AFF00E6
:1000700080307F02031D3E2805307602031C412894
:10008000422844285E285E283030F0007530F100A8
:100090008531B92580310130F6070030F73D77080A
:1000A000803AFF0080307F02031D58280530760219
:1000B000031C5B285C2844285E285E282000111E53
:1000C000622863285E286428243023009A00682868
:1000D0002000111E6C286D2868286E28243023000B
:1000E0009A0072282000111E762877287228782816
:1000F000243023009A001030F0002730F1008531C1
:10010000B925803183282000111E8728882883285C
:100110008928533023009A008D282000111E912831
:1001200092288D2893282D3023009A0097282000AC
:10013000111E9B289C2897289D282C3023009A006C
:10014000A1282000111EA528A628A128A7284230F2
:1001500023009A00AB282000111EAF28B028AB283E
:10016000B128543023009A00B5282000111EB92868
:10017000BA28B528BB28643023009A00BF28200085
:10018000111EC328C428BF28C528693023009A003F
:10019000C9282000111ECD28CE28C928CF286130BB
:1001A00023009A00D3282000111ED728D828D3284E
:1001B000D9286C3023009A00DD282000111EE12888
:1001C000E228DD28E328733023009A00E728200086
:1001D000111EEB28EC28E728ED280D3023009A00AB
:1001E0001030F0002730F1008531B9258031200032
:1001F0000C18FB28FC28202A0230F5007508C400E2
:100200000129111E0429052901290629533023003B
:100210009A000A292000111E0E290F290A291029E7
:100220004D3023009A0014292000111E1829192985
:1002300014291A292C3023009A001E292000111E8F
:10024000222923291E292429363023009A0028290F
:100250002000111E2C292D2928292E290D3023009C
:100260009A001030F0002730F1008531B925803137
:1002700039292000111E3D293E2939293F295330B3
:1002800023009A0043292000111E472948294329A9
:1002900049297E3023009A004D292000111E512942
:1002A00052294D2953292C3023009A005729200028
:1002B000111E5B295C2957295D29363023009A00DD
:1002C00061292000111E65296629612967290D30E1
:1002D00023009A001030F0002730F1008531B92555
:1002E000803172292000111E7629772972297829F8
:1002F000533023009A007C292000111E8029812977
:100300007C298229483023009A0086292000111E6A
:100310008A298B2986298C292C3023009A00902940
:100320002000111E94299529902996293030230008
:100330009A009A292000111E9E299F299A29A029F6
:10034000323023009A00A4292000111EA829A929CF
:10035000A429AA29303023009A00AE292000111EBA
:10036000B229B329AE29B429333023009A00B82921
:100370002000111EBC29BD29B829BE290D3023003B
:100380009A001030F0002730F1008531B925803116
:10039000C9292000111ECD29CE29C929CF295330C2
:1003A00023009A00D3292000111ED729D829D32948
:1003B000D929573023009A00DD292000111EE12998
:1003C000E229DD29E3292C3023009A00E7292000C7
:1003D000111EEB29EC29E729ED29303023009A0082
:1003E000F1292000111EF529F629F129F7293030CD
:1003F00023009A00FB292000111EFF29002AFB2957
:10040000012A303023009A00052A2000111E092AF3
:100410000A2A052A0B2A303023009A000F2A2000CE
:10042000111E132A142A0F2A152A0D3023009A00B0
:100430001030F0002730F1008531B9258031EE2AE7
:100440002000C4010314C40D252A111E282A292ABC
:10045000252A2A2A533023009A002E2A2000111E12
:10046000322A332A2E2A342A4D3023009A00382A81
:100470002000111E3C2A3D2A382A3E2A2C30230017
:100480009A00422A2000111E462A472A422A482A58
:10049000303023009A004C2A2000111E502A512A85
:1004A0004C2A522A0D3023009A001030F0002730D9
:1004B000F1008531B92580315D2A2000111E612AA5
:1004C000622A5D2A632A533023009A00672A20009B
:1004D000111E6B2A6C2A672A6D2A7E3023009A002F
:1004E000712A2000111E752A762A712A772A2C304B
:1004F00023009A007B2A2000111E7F2A802A7B2A53
:10050000812A303023009A00852A2000111E892A72
:100510008A2A852A8B2A0D3023009A001030F00099
:100520002730F1008531B9258031962A2000111E2F
:100530009A2A9B2A962A9C2A533023009A00A02AA2
:100540002000111EA42AA52AA02AA62A573023007B
:100550009A00AA2A2000111EAE2AAF2AAA2AB02A7F
:100560002C3023009A00B42A2000111EB82AB92A80
:10057000B42ABA2A303023009A00BE2A2000111E65
:10058000C22AC32ABE2AC42A333023009A00C82AAA
:100590002000111ECC2ACD2AC82ACE2A32302300B0
:1005A0009A00D22A2000111ED62AD72AD22AD82A67
:1005B000303023009A00DC2A2000111EE02AE12AB4
:1005C000DC2AE22A0D3023009A001030F000273098
:1005D000F1008531B9258031EE2AEE2A2000111E66
:1005E000F22AF32AEE2AF42A523023009A00F82A3B
:1005F0002000111EFC2AFD2AF82AFE2A2C30230096
:100600009A00022B2000111E062B072B022B082B11
:10061000313023009A000C2B2000111E102B112BBF
:100620000C2B122B0D3023009A00080085312B254E
:1006300083318031312083312000C001C101202B62
:100640000130F80078082000C50745080339F80094
:100650007808C9004908203E8600870100300C1A3E
:10066000013081004908243E8600870100308E1940
:10067000013081004908283E8600870100308E1B2A
:100680000130810049082C3E8600870100300E1899
:10069000013081004908303E8600870100300E1984
:1006A000013081004908343E8600870100308D1AF0
:1006B0000130810000300C1C0130F8004908383E40
:1006C000860087017808810000308C1C0130F8001A
:1006D00049083C3E860087017808810045080339B7
:1006E000033E0339F8007808C60045080339023E86
:1006F0000339F8007808C700C80108304802031C15
:10070000822B832B852B942C942C4808F8000230E4
:10071000F835890B882B20307807F90047087907CE
:10072000FA007A08860087010108013A031D992B17
:100730009A2B892C4808F8000230F835890B9D2B3C
:1007400020307807F90046087907FA007A08860011
:1007500087018108031DAD2BAE2B892C4808F800BA
:100760000230F835890BB12B20307807F9004908A1
:100770007907FA007A08860087018108031DC12BDA
:10078000C22B892C7D2C7D2C8C1DC72BC82BD42BE8
:10079000CA2BCA2B111ECD2BCE2BCA2BCF2B5730D9
:1007A00023009A00892CD42B2000111ED82BD92B82
:1007B000D42BDA2B513023009A00892C892C0E1F60
:1007C000E22BE32BEF2BE52BE52B111EE82BE92B7E
:1007D000E52BEA2B533023009A00892CEF2B2000C5
:1007E000111EF32BF42BEF2BF52B413023009A0035
:1007F000892C892C8D1FFD2BFE2B0A2C002C002C04
:10080000111E032C042C002C052C583023009A00B8
:10081000892C0A2C2000111E0E2C0F2C0A2C102CB7
:100820005A3023009A00892C892C8E1C182C192CE4
:10083000252C1B2C1B2C111E1E2C1F2C1B2C202C82
:10084000523023009A00892C252C2000111E292CBF
:100850002A2C252C2B2C453023009A00892C892CFE
:100860000D1E332C342C402C362C362C111E392CDA
:100870003A2C362C3B2C463023009A00892C402CF5
:100880002000111E442C452C402C462C44302300C3
:100890009A00892C892C0D1F4E2C4F2C5B2C512C2F
:1008A000512C111E542C552C512C562C56302300F3
:1008B0009A00892C5B2C2000111E5F2C602C5B2C75
:1008C000612C433023009A00892C892C672C20004E
:1008D000111E6B2C6C2C672C6D2C543023009A004D
:1008E000892C722C2000111E762C772C722C782CDF
:1008F000473023009A00892C892C20004808840066
:10090000083004020318892C80310435213E82000E
:10091000892C0130F80078082000C8070830480208
:10092000031C932C942C852B0C1D972C982C9B2C02
:10093000C201C3019B2C0B304302B93003194202A0
:100940000318A32CA42CAD2C00304102073003194E
:100950004002031CAC2CAD2C202B0C1DB02CB12C58
:100960000B2DC41CB42CB52CC02CB72CB72C111ECD
:10097000BA2CBB2CB72CBC2C23009A01032DC02C05
:100980002000111EC42CC52CC02CC62C24302300E2
:100990009A00CA2C2000111ECE2CCF2CCA2CD02C91
:1009A000243023009A00D42C2000111ED82CD92CDE
:1009B000D42CDA2C243023009A001030F000273099
:1009C000F1008531B9258331E52C2000111EE92C79
:1009D000EA2CE52CEB2C4B3023009A00EF2C200066
:1009E000111EF32CF42CEF2CF52C2C3023009A0044
:1009F000F92C2000111EFD2CFE2CF92CFF2C0D30A3
:100A000023009A00032D3030F0007530F10085315D
:100A1000B92583310B2D8531A22583310F2D20007F
:100A20000C1C132D142D0F2D152D1430F00000303B
:100A3000F1008531B92583311D2D20000C18212DA1
:100A4000222D1D2D232D85312B258331202B202B6D
:100A5000202B80311E2821009913190887397038FE
:100A6000990022009D171D152000C501F3010830D3
:100A70007302031C3C2D3D2D3F2D702D702DF40174
:100A800004307402031C452D462D482D652D652D1F
:100A90007308F0000230F035890B4B2D20307007C1
:100AA000F10074087107F200720886008701810165
:100AB0000314810D0130F0007008F4070430740253
:100AC000031C632D642D482D652D0130F000700846
:100AD000F30708307302031C6E2D6F2D3F2D702D10
:100AE0002000C201C301C001C1013F3098051816A2
:100AF0009816981199139701960118142100111452
:100B00000B178B170C3023009B009C011E119F11AB
:100B10001E129D171E139E168C018D018E01210041
:100B200095131F3024008C00F0308D00FF308E00B4
:100B3000DF3021008C00FF308D00FF308E00200060
:100B40008C12080087302100990520001810210020
:100B500011100B138B1323009D139E12FF302100E5
:100B60008C00FE3023008C00FF308D00FF308E00A3
:100B70000800F301F401C02D0130F3070030F43D0B
:100B80007408803AF2007108803A7202031DCA2D7F
:100B900070087302031CCD2DCE2DBC2DCF2D080067
:100BA000203084000030850026308531DB258531FA
:100BB00020008331162B640080010131890BDC2D6C
:100BC0000034FF3FFF3FFF3FFF3FFF3FFF3FFF3F3F
:100BD000FF3FFF3FFF3FFF3FFF3FFF3FFF3FFF3F25
:100BE000FF3FFF3FFF3FFF3FFF3FFF3FFF3FFF3F15
:100BF000FF3FFF3FFF3FFF3FFF3FFF3FFF3FFF3F05
:100C0000FF3FFF3FFF3FFF3FFF3FFF3FFF3FFF3FF4
:020000040001F9
:04000E0084C9FFDCC6
:08000000FF3FFF3FFF3FFF3F00
:00000001FF
