:020000040000FA
:1000000080311E28FF3FFF3F80312000111C09284E
:100010000A281D280130C2070030C33D0C1C1128DE
:1000200012281528C001C1011A280130C00700306C
:10003000C13D1A2811101D281D280900880185318D
:10004000482D8031E3288031FF2881311B298131FF
:1000500037298131532981316F2981318C298131AF
:10006000972984318C2480312000461C3828392877
:100070003D288231762280313D282000C001C10117
:10008000412801302000C4070030C53D4408033931
:10009000F7007708FD007D08203E860087010030CC
:1000A0000C1A013081007D08243E86008701003053
:1000B0008E19013081007D08283E860087010030BE
:1000C0008E1B013081007D082C3E860087010030A8
:1000D0000E18013081007D08303E86008701003017
:1000E0000E19013081007D08343E86008701003002
:1000F0008D1A0130810000308C1C0130F7007D0822
:10010000383E860087017708810000300C1C0130E2
:10011000F7007D083C3E86008701770881007D0856
:10012000033E0339F7007708FA007D08023E0339E1
:10013000F7007708FB00FC0108307C02031CA128B3
:10014000A228A428B729B7297C08F7000230F73580
:10015000890BA72820307707F8007B087807F9007B
:100160007908860087010108013A031DB828B928DB
:10017000AD297C08F7000230F735890BBC28203008
:100180007707F8007A087807F90079088600870170
:100190008108031DCC28CD28AD297C08F70002304A
:1001A000F735890BD02820307707F8007D087807CD
:1001B000F9007908860087018108031DE028E128FD
:1001C000AD29A229A22920008C1DE728E828F428BF
:1001D000EA28EA28111EED28EE28EA28EF285230F6
:1001E00023009A00AD29F4282000111EF828F928D0
:1001F000F428FA28453023009A00AD29AD292000C3
:100200000E1F03290429102906290629111E092970
:100210000A2906290B29463023009A00AD29102906
:100220002000111E142915291029162944302300F5
:100230009A00AD29AD2920008D1F1F2920292C29C6
:1002400022292229111E252926292229272956302B
:1002500023009A00AD292C292000111E30293129B4
:100260002C293229433023009A00AD29AD292000E2
:100270008E1C3B293C2948293E293E29111E412933
:1002800042293E294329513023009A00AD294829AB
:100290002000111E4C294D2948294E295730230092
:1002A0009A00AD29AD2920000D1E5729582964292F
:1002B0005A295A29111E5D295E295A295F29413080
:1002C00023009A00AD2964292000111E682969299C
:1002D00064296A29533023009A00AD29AD292000F2
:1002E0000D1F73297429802976297629111E7929F1
:1002F0007A2976297B295A3023009A00AD29802952
:100300002000111E84298529802986295830230040
:100310009A00AD29AD298C292000111E9029912920
:100320008C299229543023009A00AD299729200066
:10033000111E9B299C2997299D29473023009A004B
:10034000AD29AD297C088400083004020318AD29CA
:1003500080310435213E8200AD290130F700770855
:10036000FC0708307C02031CB629B729A42820000A
:10037000461CBB29BC29532A0C1DBF29C029C329EF
:10038000C201C301D0298E1EC629C729D029C201A6
:10039000C3010230F7007708C6008C16D029D02997
:1003A0000B304302B930031942020318D829D92966
:1003B000E22900304102073003194002031CE12901
:1003C000E22941280C1DE529E629312AE829E829F6
:1003D000111EEB29EC29E829ED29243023009A008D
:1003E000F1292000111EF529F629F129F7292430D9
:1003F00023009A00FB292000111EFF29002AFB2957
:10040000012A243023009A001030F0002730F10038
:100410008531312580310C2A2000111E102A112A25
:100420000C2A122A4B3023009A00162A2000111E93
:100430001A2A1B2A162A1C2A2C3023009A00202A4A
:100440002000111E242A252A202A262A0D302300C6
:100450009A003030F0007530F1008531312580315F
:10046000312A853115258031352A20000C1C392A86
:100470003A2A352A3B2A1430F0000030F100853149
:1004800031258031432A20000C1C472A482A4E2A55
:100490000C1D4B2A4C2A432A4E2A4E2A84318C2486
:1004A0008031412841288E1A562A572A4128853101
:1004B000152580311430F0000030F10085313125F0
:1004C0008031622A20000C1C662A672A6D2A8E1E43
:1004D0006A2A6B2A622A6D2A6D2A84318C24803123
:1004E000412841284128412880311E2820008C12B3
:1004F000F501F6017608803AFF0080307F02031D87
:10050000832A05307502031C862A872A892AA32A92
:10051000A32A3030F0007530F10085313125823169
:100520000130F5070030F63D7608803AFF00803054
:100530007F02031D9D2A05307502031CA02AA12AF3
:10054000892AA32AA32A2000111EA72AA82AA32A9F
:10055000A92A243023009A00AD2A2000111EB12AB6
:10056000B22AAD2AB32A243023009A00B72A2000E9
:10057000111EBB2ABC2AB72ABD2A243023009A00A8
:100580001030F0002730F100853131258231C82A42
:100590002000111ECC2ACD2AC82ACE2A533023008F
:1005A0009A00D22A2000111ED62AD72AD22AD82A67
:1005B0002D3023009A00DC2A2000111EE02AE12AB7
:1005C000DC2AE22A2C3023009A00E62A2000111EA1
:1005D000EA2AEB2AE62AEC2A423023009A00F02A83
:1005E0002000111EF42AF52AF02AF62A543023009E
:1005F0009A00FA2A2000111EFE2AFF2AFA2A002B4E
:10060000643023009A00042B2000111E082B092BB4
:10061000042B0A2B693023009A000E2B2000111E98
:10062000122B132B0E2B142B613023009A00182B46
:100630002000111E1C2B1D2B182B1E2B6C30230091
:100640009A00222B2000111E262B272B222B282B31
:10065000733023009A002C2B2000111E302B312BDD
:100660002C2B322B0D3023009A001030F000273055
:10067000F1008531312582313D2B2000111E412BA7
:10068000422B3D2B432B533023009A00472B200055
:10069000111E4B2B4C2B472B4D2B4D3023009A001A
:1006A000512B2000111E552B562B512B572B2C3024
:1006B00023009A005B2B2000111E5F2B602B5B2B0D
:1006C000612B303023009A00652B2000111E692B0E
:1006D0006A2B652B6B2B0D3023009A001030F00035
:1006E0002730F100853131258231762B2000111E13
:1006F0007A2B7B2B762B7C2B533023009A00802B7C
:100700002000111E842B852B802B862B7E3023000E
:100710009A008A2B2000111E8E2B8F2B8A2B902B58
:100720002C3023009A00942B2000111E982B992B1B
:10073000942B9A2B303023009A009E2B2000111E00
:10074000A22BA32B9E2BA42B0D3023009A0010303C
:10075000F0002730F10085313125823120000C185E
:10076000B22BB32B0C2CB52BB52B111EB82BB92BE0
:10077000B52BBA2B533023009A00BE2B2000111E3C
:10078000C22BC32BBE2BC42B573023009A00C82B7F
:100790002000111ECC2BCD2BC82BCE2B2C302300B0
:1007A0009A00D22B2000111ED62BD72BD22BD82B60
:1007B000303023009A00DC2B2000111EE02BE12BAF
:1007C000DC2BE22B303023009A00E62B2000111E98
:1007D000EA2BEB2BE62BEC2B303023009A00F02B8E
:1007E0002000111EF42BF52BF02BF62B30302300BC
:1007F0009A00FA2B2000111EFE2BFF2BFA2B002C47
:100800000D3023009A001030F0002730F1008531C0
:1008100031258231642C0C2C2000111E102C112C3F
:100820000C2C122C533023009A00162C2000111E81
:100830001A2C1B2C162C1C2C573023009A00202C11
:100840002000111E242C252C202C262C2C3023009B
:100850009A002A2C2000111E2E2C2F2C2A2C302CF2
:10086000303023009A00342C2000111E382C392CF3
:10087000342C3A2C333023009A003E2C2000111ED9
:10088000422C432C3E2C442C323023009A00482C1E
:100890002000111E4C2C4D2C482C4E2C30302300A7
:1008A0009A00522C2000111E562C572C522C582CDA
:1008B0000D3023009A001030F0002730F100853110
:1008C00031258231642C642C2000111E682C692C87
:1008D000642C6A2C523023009A006E2C2000111ECA
:1008E000722C732C6E2C742C2C3023009A00782CD4
:1008F0002000111E7C2C7D2C782C7E2C3130230086
:100900009A00822C2000111E862C872C822C882C89
:100910000D3023009A000800210099131908873927
:100920007038990022009D171D152000C401C501D3
:10093000F30108307302031C9E2C9F2CA12CD22C97
:10094000D22CF40104307402031CA72CA82CAA2C6E
:10095000C72CC72C7308F0000230F035890BAD2C82
:1009600020307007F10074087107F20072088600E9
:10097000870181010314810D0130F0007008F40734
:1009800004307402031CC52CC62CAA2CC72C0130C1
:10099000F0007008F30708307302031CD02CD12C30
:1009A000A12CD22C2000C201C301C001C1013F30E3
:1009B000980518169816981199139701960118140E
:1009C000210011140B178B1723009C010C309B0086
:1009D0001E119F111E129D171E139E168C018D0154
:1009E0008E01DF3027008E00210095131B3024007C
:1009F0008C00F0308D00DF308E00DF3021008C0065
:100A0000FF308D00FF308E0020008E1E082D092D36
:100A10000F2D0230F0007008C6008C16142DC60190
:100A20000314C60D8C12142D08008730210099057F
:100A300020001810210011100B138B1323009D139D
:100A40009E12013024008C008D018E01FF302100A8
:100A50008C00FA3023008C00FF308D00DF308E00D8
:100A60000800F301F401382D0130F3070030F43DA4
:100A70007408803AF2007108803A7202031D422D18
:100A800070087302031C452D462D342D472D080098
:100A90002030840000308500273085315325853192
:100AA000200080313128640080010131890B542DF0
:100AB0000034FF3FFF3FFF3FFF3FFF3FFF3FFF3F50
:100AC000FF3FFF3FFF3FFF3FFF3FFF3FFF3FFF3F36
:100AD000FF3FFF3FFF3FFF3FFF3FFF3FFF3FFF3F26
:100AE000FF3FFF3FFF3FFF3FFF3FFF3FFF3FFF3F16
:100AF000FF3FFF3FFF3FFF3FFF3FFF3FFF3FFF3F06
:020000040001F9
:04000E0084C9FFDCC6
:00000001FF
